{
  "_format": "hh-sol-artifact-1",
  "contractName": "LoanManagement",
  "sourceName": "contracts/LoanManagement.sol",
  "abi": [
    {
      "inputs": [],
      "stateMutability": "nonpayable",
      "type": "constructor"
    },
    {
      "anonymous": false,
      "inputs": [
        {
          "indexed": true,
          "internalType": "uint256",
          "name": "loanId",
          "type": "uint256"
        },
        {
          "indexed": false,
          "internalType": "uint256",
          "name": "amount",
          "type": "uint256"
        },
        {
          "indexed": false,
          "internalType": "uint256",
          "name": "emiNumber",
          "type": "uint256"
        },
        {
          "indexed": false,
          "internalType": "uint256",
          "name": "timestamp",
          "type": "uint256"
        }
      ],
      "name": "EMIRecorded",
      "type": "event"
    },
    {
      "anonymous": false,
      "inputs": [
        {
          "indexed": true,
          "internalType": "uint256",
          "name": "loanId",
          "type": "uint256"
        },
        {
          "indexed": false,
          "internalType": "uint256",
          "name": "amount",
          "type": "uint256"
        },
        {
          "indexed": false,
          "internalType": "uint256",
          "name": "interestRate",
          "type": "uint256"
        },
        {
          "indexed": false,
          "internalType": "uint256",
          "name": "timestamp",
          "type": "uint256"
        }
      ],
      "name": "LoanApproved",
      "type": "event"
    },
    {
      "anonymous": false,
      "inputs": [
        {
          "indexed": true,
          "internalType": "uint256",
          "name": "loanId",
          "type": "uint256"
        },
        {
          "indexed": false,
          "internalType": "string",
          "name": "borrowerName",
          "type": "string"
        },
        {
          "indexed": false,
          "internalType": "string",
          "name": "applicationNumber",
          "type": "string"
        },
        {
          "indexed": false,
          "internalType": "uint256",
          "name": "amount",
          "type": "uint256"
        },
        {
          "indexed": false,
          "internalType": "uint256",
          "name": "creditScore",
          "type": "uint256"
        },
        {
          "indexed": false,
          "internalType": "uint256",
          "name": "timestamp",
          "type": "uint256"
        }
      ],
      "name": "LoanCreated",
      "type": "event"
    },
    {
      "anonymous": false,
      "inputs": [
        {
          "indexed": true,
          "internalType": "uint256",
          "name": "loanId",
          "type": "uint256"
        },
        {
          "indexed": false,
          "internalType": "string",
          "name": "reason",
          "type": "string"
        },
        {
          "indexed": false,
          "internalType": "uint256",
          "name": "timestamp",
          "type": "uint256"
        }
      ],
      "name": "LoanRejected",
      "type": "event"
    },
    {
      "inputs": [
        {
          "internalType": "uint256",
          "name": "_loanId",
          "type": "uint256"
        },
        {
          "internalType": "uint256",
          "name": "_interestRate",
          "type": "uint256"
        }
      ],
      "name": "approveLoan",
      "outputs": [],
      "stateMutability": "nonpayable",
      "type": "function"
    },
    {
      "inputs": [
        {
          "internalType": "string",
          "name": "_borrowerName",
          "type": "string"
        },
        {
          "internalType": "string",
          "name": "_applicationNumber",
          "type": "string"
        },
        {
          "internalType": "uint256",
          "name": "_amount",
          "type": "uint256"
        },
        {
          "internalType": "uint256",
          "name": "_creditScore",
          "type": "uint256"
        },
        {
          "internalType": "string",
          "name": "_loanType",
          "type": "string"
        }
      ],
      "name": "createLoan",
      "outputs": [
        {
          "internalType": "uint256",
          "name": "",
          "type": "uint256"
        }
      ],
      "stateMutability": "nonpayable",
      "type": "function"
    },
    {
      "inputs": [],
      "name": "getAllLoans",
      "outputs": [
        {
          "components": [
            {
              "internalType": "uint256",
              "name": "loanId",
              "type": "uint256"
            },
            {
              "internalType": "string",
              "name": "borrowerName",
              "type": "string"
            },
            {
              "internalType": "string",
              "name": "applicationNumber",
              "type": "string"
            },
            {
              "internalType": "uint256",
              "name": "amount",
              "type": "uint256"
            },
            {
              "internalType": "uint256",
              "name": "creditScore",
              "type": "uint256"
            },
            {
              "internalType": "string",
              "name": "loanType",
              "type": "string"
            },
            {
              "internalType": "uint256",
              "name": "interestRate",
              "type": "uint256"
            },
            {
              "internalType": "bool",
              "name": "approved",
              "type": "bool"
            },
            {
              "internalType": "bool",
              "name": "rejected",
              "type": "bool"
            },
            {
              "internalType": "uint256",
              "name": "timestamp",
              "type": "uint256"
            },
            {
              "internalType": "string",
              "name": "rejectionReason",
              "type": "string"
            }
          ],
          "internalType": "struct LoanManagement.Loan[]",
          "name": "",
          "type": "tuple[]"
        }
      ],
      "stateMutability": "view",
      "type": "function"
    },
    {
      "inputs": [
        {
          "internalType": "uint256",
          "name": "_loanId",
          "type": "uint256"
        }
      ],
      "name": "getLoan",
      "outputs": [
        {
          "components": [
            {
              "internalType": "uint256",
              "name": "loanId",
              "type": "uint256"
            },
            {
              "internalType": "string",
              "name": "borrowerName",
              "type": "string"
            },
            {
              "internalType": "string",
              "name": "applicationNumber",
              "type": "string"
            },
            {
              "internalType": "uint256",
              "name": "amount",
              "type": "uint256"
            },
            {
              "internalType": "uint256",
              "name": "creditScore",
              "type": "uint256"
            },
            {
              "internalType": "string",
              "name": "loanType",
              "type": "string"
            },
            {
              "internalType": "uint256",
              "name": "interestRate",
              "type": "uint256"
            },
            {
              "internalType": "bool",
              "name": "approved",
              "type": "bool"
            },
            {
              "internalType": "bool",
              "name": "rejected",
              "type": "bool"
            },
            {
              "internalType": "uint256",
              "name": "timestamp",
              "type": "uint256"
            },
            {
              "internalType": "string",
              "name": "rejectionReason",
              "type": "string"
            }
          ],
          "internalType": "struct LoanManagement.Loan",
          "name": "",
          "type": "tuple"
        }
      ],
      "stateMutability": "view",
      "type": "function"
    },
    {
      "inputs": [
        {
          "internalType": "uint256",
          "name": "_loanId",
          "type": "uint256"
        }
      ],
      "name": "getRepayments",
      "outputs": [
        {
          "components": [
            {
              "internalType": "uint256",
              "name": "loanId",
              "type": "uint256"
            },
            {
              "internalType": "uint256",
              "name": "amount",
              "type": "uint256"
            },
            {
              "internalType": "uint256",
              "name": "timestamp",
              "type": "uint256"
            },
            {
              "internalType": "uint256",
              "name": "emiNumber",
              "type": "uint256"
            }
          ],
          "internalType": "struct LoanManagement.Repayment[]",
          "name": "",
          "type": "tuple[]"
        }
      ],
      "stateMutability": "view",
      "type": "function"
    },
    {
      "inputs": [],
      "name": "getTransactionCount",
      "outputs": [
        {
          "internalType": "uint256",
          "name": "",
          "type": "uint256"
        }
      ],
      "stateMutability": "view",
      "type": "function"
    },
    {
      "inputs": [],
      "name": "getTransactionHistory",
      "outputs": [
        {
          "components": [
            {
              "internalType": "uint256",
              "name": "loanId",
              "type": "uint256"
            },
            {
              "internalType": "string",
              "name": "action",
              "type": "string"
            },
            {
              "internalType": "uint256",
              "name": "timestamp",
              "type": "uint256"
            },
            {
              "internalType": "string",
              "name": "details",
              "type": "string"
            }
          ],
          "internalType": "struct LoanManagement.TransactionLog[]",
          "name": "",
          "type": "tuple[]"
        }
      ],
      "stateMutability": "view",
      "type": "function"
    },
    {
      "inputs": [],
      "name": "loanCount",
      "outputs": [
        {
          "internalType": "uint256",
          "name": "",
          "type": "uint256"
        }
      ],
      "stateMutability": "view",
      "type": "function"
    },
    {
      "inputs": [
        {
          "internalType": "uint256",
          "name": "",
          "type": "uint256"
        }
      ],
      "name": "loans",
      "outputs": [
        {
          "internalType": "uint256",
          "name": "loanId",
          "type": "uint256"
        },
        {
          "internalType": "string",
          "name": "borrowerName",
          "type": "string"
        },
        {
          "internalType": "string",
          "name": "applicationNumber",
          "type": "string"
        },
        {
          "internalType": "uint256",
          "name": "amount",
          "type": "uint256"
        },
        {
          "internalType": "uint256",
          "name": "creditScore",
          "type": "uint256"
        },
        {
          "internalType": "string",
          "name": "loanType",
          "type": "string"
        },
        {
          "internalType": "uint256",
          "name": "interestRate",
          "type": "uint256"
        },
        {
          "internalType": "bool",
          "name": "approved",
          "type": "bool"
        },
        {
          "internalType": "bool",
          "name": "rejected",
          "type": "bool"
        },
        {
          "internalType": "uint256",
          "name": "timestamp",
          "type": "uint256"
        },
        {
          "internalType": "string",
          "name": "rejectionReason",
          "type": "string"
        }
      ],
      "stateMutability": "view",
      "type": "function"
    },
    {
      "inputs": [],
      "name": "owner",
      "outputs": [
        {
          "internalType": "address",
          "name": "",
          "type": "address"
        }
      ],
      "stateMutability": "view",
      "type": "function"
    },
    {
      "inputs": [
        {
          "internalType": "uint256",
          "name": "_loanId",
          "type": "uint256"
        },
        {
          "internalType": "uint256",
          "name": "_amount",
          "type": "uint256"
        },
        {
          "internalType": "uint256",
          "name": "_emiNumber",
          "type": "uint256"
        }
      ],
      "name": "recordRepayment",
      "outputs": [],
      "stateMutability": "nonpayable",
      "type": "function"
    },
    {
      "inputs": [
        {
          "internalType": "uint256",
          "name": "_loanId",
          "type": "uint256"
        },
        {
          "internalType": "string",
          "name": "_reason",
          "type": "string"
        }
      ],
      "name": "rejectLoan",
      "outputs": [],
      "stateMutability": "nonpayable",
      "type": "function"
    },
    {
      "inputs": [
        {
          "internalType": "uint256",
          "name": "",
          "type": "uint256"
        },
        {
          "internalType": "uint256",
          "name": "",
          "type": "uint256"
        }
      ],
      "name": "repayments",
      "outputs": [
        {
          "internalType": "uint256",
          "name": "loanId",
          "type": "uint256"
        },
        {
          "internalType": "uint256",
          "name": "amount",
          "type": "uint256"
        },
        {
          "internalType": "uint256",
          "name": "timestamp",
          "type": "uint256"
        },
        {
          "internalType": "uint256",
          "name": "emiNumber",
          "type": "uint256"
        }
      ],
      "stateMutability": "view",
      "type": "function"
    },
    {
      "inputs": [],
      "name": "transactionCount",
      "outputs": [
        {
          "internalType": "uint256",
          "name": "",
          "type": "uint256"
        }
      ],
      "stateMutability": "view",
      "type": "function"
    },
    {
      "inputs": [
        {
          "internalType": "uint256",
          "name": "",
          "type": "uint256"
        }
      ],
      "name": "transactionLogs",
      "outputs": [
        {
          "internalType": "uint256",
          "name": "loanId",
          "type": "uint256"
        },
        {
          "internalType": "string",
          "name": "action",
          "type": "string"
        },
        {
          "internalType": "uint256",
          "name": "timestamp",
          "type": "uint256"
        },
        {
          "internalType": "string",
          "name": "details",
          "type": "string"
        }
      ],
      "stateMutability": "view",
      "type": "function"
    }
  ],
  "bytecode": "0x608060405234801561001057600080fd5b5033600560006101000a81548173ffffffffffffffffffffffffffffffffffffffff021916908373ffffffffffffffffffffffffffffffffffffffff16021790555060008081905550600060018190555061332d806100706000396000f3fe608060405234801561001057600080fd5b50600436106100f55760003560e01c80639034f7ac11610097578063ce63094d11610066578063ce63094d14610277578063e1ec3c6814610295578063e5ebca3f146102cf578063f1f69f22146102ff576100f5565b80639034f7ac146101ea578063a5bfd16a1461021d578063b76d4fc31461023b578063b77bf60014610259576100f5565b806352ee8f81116100d357806352ee8f81146101785780635ca9cf27146101945780637a646492146101b05780638da5cb5b146101cc576100f5565b80632e7700f0146100fa5780634e83aa4514610118578063504006ca14610148575b600080fd5b610102610332565b60405161010f9190611e9f565b60405180910390f35b610132600480360381019061012d9190611efa565b61033c565b60405161013f919061203a565b60405180910390f35b610162600480360381019061015d9190611efa565b6103d6565b60405161016f919061220b565b60405180910390f35b610192600480360381019061018d9190612362565b610705565b005b6101ae60048036038101906101a991906123be565b6109e3565b005b6101ca60048036038101906101c59190612411565b610cf1565b005b6101d4611013565b6040516101e19190612492565b60405180910390f35b61020460048036038101906101ff9190612411565b611039565b60405161021494939291906124ad565b60405180910390f35b610225611086565b60405161023291906126b8565b60405180910390f35b610243611405565b6040516102509190612806565b60405180910390f35b61026161159c565b60405161026e9190611e9f565b60405180910390f35b61027f6115a2565b60405161028c9190611e9f565b60405180910390f35b6102af60048036038101906102aa9190611efa565b6115a8565b6040516102c69b9a99989796959493929190612881565b60405180910390f35b6102e960048036038101906102e49190612948565b61183c565b6040516102f69190611e9f565b60405180910390f35b61031960048036038101906103149190611efa565b611b79565b6040516103299493929190612a17565b60405180910390f35b6000600154905090565b606060036000838152602001908152602001600020805480602002602001604051908101604052809291908181526020016000905b828210156103cb578382906000526020600020906004020160405180608001604052908160008201548152602001600182015481526020016002820154815260200160038201548152505081526020019060010190610371565b505050509050919050565b6103de611e28565b6000821180156103f057506000548211155b61042f576040517f08c379a000000000000000000000000000000000000000000000000000000000815260040161042690612ab6565b60405180910390fd5b60026000838152602001908152602001600020604051806101600160405290816000820154815260200160018201805461046890612b05565b80601f016020809104026020016040519081016040528092919081815260200182805461049490612b05565b80156104e15780601f106104b6576101008083540402835291602001916104e1565b820191906000526020600020905b8154815290600101906020018083116104c457829003601f168201915b505050505081526020016002820180546104fa90612b05565b80601f016020809104026020016040519081016040528092919081815260200182805461052690612b05565b80156105735780601f1061054857610100808354040283529160200191610573565b820191906000526020600020905b81548152906001019060200180831161055657829003601f168201915b5050505050815260200160038201548152602001600482015481526020016005820180546105a090612b05565b80601f01602080910402602001604051908101604052809291908181526020018280546105cc90612b05565b80156106195780601f106105ee57610100808354040283529160200191610619565b820191906000526020600020905b8154815290600101906020018083116105fc57829003601f168201915b50505050508152602001600682015481526020016007820160009054906101000a900460ff161515151581526020016007820160019054906101000a900460ff161515151581526020016008820154815260200160098201805461067c90612b05565b80601f01602080910402602001604051908101604052809291908181526020018280546106a890612b05565b80156106f55780601f106106ca576101008083540402835291602001916106f5565b820191906000526020600020905b8154815290600101906020018083116106d857829003601f168201915b5050505050815250509050919050565b600560009054906101000a900473ffffffffffffffffffffffffffffffffffffffff1673ffffffffffffffffffffffffffffffffffffffff163373ffffffffffffffffffffffffffffffffffffffff1614610795576040517f08c379a000000000000000000000000000000000000000000000000000000000815260040161078c90612b82565b60405180910390fd5b6000821180156107a757506000548211155b6107e6576040517f08c379a00000000000000000000000000000000000000000000000000000000081526004016107dd90612ab6565b60405180910390fd5b6002600083815260200190815260200160002060070160009054906101000a900460ff1615801561083857506002600083815260200190815260200160002060070160019054906101000a900460ff16155b610877576040517f08c379a000000000000000000000000000000000000000000000000000000000815260040161086e90612bee565b60405180910390fd5b60016002600084815260200190815260200160002060070160016101000a81548160ff021916908315150217905550806002600084815260200190815260200160002060090190816108c99190612dba565b50600460405180608001604052808481526020016040518060400160405280600881526020017f52454a4543544544000000000000000000000000000000000000000000000000815250815260200142815260200183815250908060018154018082558091505060019003906000526020600020906004020160009091909190915060008201518160000155602082015181600101908161096a9190612dba565b5060408201518160020155606082015181600301908161098a9190612dba565b505050600160008154809291906109a090612ebb565b9190505550817faa44c74554e07239593f237bfb0189ff6c451db1fda311a53d44e42471e5bf2c82426040516109d7929190612f03565b60405180910390a25050565b600560009054906101000a900473ffffffffffffffffffffffffffffffffffffffff1673ffffffffffffffffffffffffffffffffffffffff163373ffffffffffffffffffffffffffffffffffffffff1614610a73576040517f08c379a0000000000000000000000000000000000000000000000000000000008152600401610a6a90612b82565b60405180910390fd5b600083118015610a8557506000548311155b610ac4576040517f08c379a0000000000000000000000000000000000000000000000000000000008152600401610abb90612ab6565b60405180910390fd5b6002600084815260200190815260200160002060070160009054906101000a900460ff16610b27576040517f08c379a0000000000000000000000000000000000000000000000000000000008152600401610b1e90612f7f565b60405180910390fd5b600360008481526020019081526020016000206040518060800160405280858152602001848152602001428152602001838152509080600181540180825580915050600190039060005260206000209060040201600090919091909150600082015181600001556020820151816001015560408201518160020155606082015181600301555050600460405180608001604052808581526020016040518060400160405280600881526020017f454d495f504149440000000000000000000000000000000000000000000000008152508152602001428152602001610c0b84611cc9565b604051602001610c1b9190613073565b6040516020818303038152906040528152509080600181540180825580915050600190039060005260206000209060040201600090919091909150600082015181600001556020820151816001019081610c759190612dba565b50604082015181600201556060820151816003019081610c959190612dba565b50505060016000815480929190610cab90612ebb565b9190505550827f0b9b19b87e8bf9e2a72624873e5702b83c228086c14480c274dcd21d4d3116e7838342604051610ce4939291906130a0565b60405180910390a2505050565b600560009054906101000a900473ffffffffffffffffffffffffffffffffffffffff1673ffffffffffffffffffffffffffffffffffffffff163373ffffffffffffffffffffffffffffffffffffffff1614610d81576040517f08c379a0000000000000000000000000000000000000000000000000000000008152600401610d7890612b82565b60405180910390fd5b600082118015610d9357506000548211155b610dd2576040517f08c379a0000000000000000000000000000000000000000000000000000000008152600401610dc990612ab6565b60405180910390fd5b6002600083815260200190815260200160002060070160009054906101000a900460ff16158015610e2457506002600083815260200190815260200160002060070160019054906101000a900460ff16155b610e63576040517f08c379a0000000000000000000000000000000000000000000000000000000008152600401610e5a90612bee565b60405180910390fd5b60016002600084815260200190815260200160002060070160006101000a81548160ff021916908315150217905550806002600084815260200190815260200160002060060181905550600460405180608001604052808481526020016040518060400160405280600881526020017f415050524f56454400000000000000000000000000000000000000000000000081525081526020014281526020016040518060400160405280601d81526020017f4c6f616e20617070726f7665642062792062616e6b206d616e616765720000008152508152509080600181540180825580915050600190039060005260206000209060040201600090919091909150600082015181600001556020820151816001019081610f829190612dba565b50604082015181600201556060820151816003019081610fa29190612dba565b50505060016000815480929190610fb890612ebb565b9190505550817fbefb9ddb6e6bfefdf6831a711a035f121b3ea291dc138e2023ca85481ba7fe5760026000858152602001908152602001600020600301548342604051611007939291906130a0565b60405180910390a25050565b600560009054906101000a900473ffffffffffffffffffffffffffffffffffffffff1681565b6003602052816000526040600020818154811061105557600080fd5b9060005260206000209060040201600091509150508060000154908060010154908060020154908060030154905084565b60606000805467ffffffffffffffff8111156110a5576110a4612237565b5b6040519080825280602002602001820160405280156110de57816020015b6110cb611e28565b8152602001906001900390816110c35790505b5090506000600190505b60005481116113fd5760026000828152602001908152602001600020604051806101600160405290816000820154815260200160018201805461112a90612b05565b80601f016020809104026020016040519081016040528092919081815260200182805461115690612b05565b80156111a35780601f10611178576101008083540402835291602001916111a3565b820191906000526020600020905b81548152906001019060200180831161118657829003601f168201915b505050505081526020016002820180546111bc90612b05565b80601f01602080910402602001604051908101604052809291908181526020018280546111e890612b05565b80156112355780601f1061120a57610100808354040283529160200191611235565b820191906000526020600020905b81548152906001019060200180831161121857829003601f168201915b50505050508152602001600382015481526020016004820154815260200160058201805461126290612b05565b80601f016020809104026020016040519081016040528092919081815260200182805461128e90612b05565b80156112db5780601f106112b0576101008083540402835291602001916112db565b820191906000526020600020905b8154815290600101906020018083116112be57829003601f168201915b50505050508152602001600682015481526020016007820160009054906101000a900460ff161515151581526020016007820160019054906101000a900460ff161515151581526020016008820154815260200160098201805461133e90612b05565b80601f016020809104026020016040519081016040528092919081815260200182805461136a90612b05565b80156113b75780601f1061138c576101008083540402835291602001916113b7565b820191906000526020600020905b81548152906001019060200180831161139a57829003601f168201915b505050505081525050826001836113ce91906130d7565b815181106113df576113de61310b565b5b602002602001018190525080806113f590612ebb565b9150506110e8565b508091505090565b60606004805480602002602001604051908101604052809291908181526020016000905b8282101561159357838290600052602060002090600402016040518060800160405290816000820154815260200160018201805461146690612b05565b80601f016020809104026020016040519081016040528092919081815260200182805461149290612b05565b80156114df5780601f106114b4576101008083540402835291602001916114df565b820191906000526020600020905b8154815290600101906020018083116114c257829003601f168201915b505050505081526020016002820154815260200160038201805461150290612b05565b80601f016020809104026020016040519081016040528092919081815260200182805461152e90612b05565b801561157b5780601f106115505761010080835404028352916020019161157b565b820191906000526020600020905b81548152906001019060200180831161155e57829003601f168201915b50505050508152505081526020019060010190611429565b50505050905090565b60015481565b60005481565b60026020528060005260406000206000915090508060000154908060010180546115d190612b05565b80601f01602080910402602001604051908101604052809291908181526020018280546115fd90612b05565b801561164a5780601f1061161f5761010080835404028352916020019161164a565b820191906000526020600020905b81548152906001019060200180831161162d57829003601f168201915b50505050509080600201805461165f90612b05565b80601f016020809104026020016040519081016040528092919081815260200182805461168b90612b05565b80156116d85780601f106116ad576101008083540402835291602001916116d8565b820191906000526020600020905b8154815290600101906020018083116116bb57829003601f168201915b5050505050908060030154908060040154908060050180546116f990612b05565b80601f016020809104026020016040519081016040528092919081815260200182805461172590612b05565b80156117725780601f1061174757610100808354040283529160200191611772565b820191906000526020600020905b81548152906001019060200180831161175557829003601f168201915b5050505050908060060154908060070160009054906101000a900460ff16908060070160019054906101000a900460ff16908060080154908060090180546117b990612b05565b80601f01602080910402602001604051908101604052809291908181526020018280546117e590612b05565b80156118325780601f1061180757610100808354040283529160200191611832565b820191906000526020600020905b81548152906001019060200180831161181557829003601f168201915b505050505090508b565b6000600560009054906101000a900473ffffffffffffffffffffffffffffffffffffffff1673ffffffffffffffffffffffffffffffffffffffff163373ffffffffffffffffffffffffffffffffffffffff16146118ce576040517f08c379a00000000000000000000000000000000000000000000000000000000081526004016118c590612b82565b60405180910390fd5b6000808154809291906118e090612ebb565b919050555060405180610160016040528060005481526020018781526020018681526020018581526020018481526020018381526020016000815260200160001515815260200160001515815260200142815260200160405180602001604052806000815250815250600260008054815260200190815260200160002060008201518160000155602082015181600101908161197c9190612dba565b5060408201518160020190816119929190612dba565b50606082015181600301556080820151816004015560a08201518160050190816119bc9190612dba565b5060c0820151816006015560e08201518160070160006101000a81548160ff0219169083151502179055506101008201518160070160016101000a81548160ff0219169083151502179055506101208201518160080155610140820151816009019081611a299190612dba565b509050506004604051806080016040528060005481526020016040518060400160405280600781526020017f4352454154454400000000000000000000000000000000000000000000000000815250815260200142815260200188604051602001611a949190613186565b6040516020818303038152906040528152509080600181540180825580915050600190039060005260206000209060040201600090919091909150600082015181600001556020820151816001019081611aee9190612dba565b50604082015181600201556060820151816003019081611b0e9190612dba565b50505060016000815480929190611b2490612ebb565b91905055506000547f9ad115667eedc5192209abae5a64cb43d9dbad5dc6d46912cfb56f465753c4b88787878742604051611b639594939291906131a8565b60405180910390a2600054905095945050505050565b60048181548110611b8957600080fd5b9060005260206000209060040201600091509050806000015490806001018054611bb290612b05565b80601f0160208091040260200160405190810160405280929190818152602001828054611bde90612b05565b8015611c2b5780601f10611c0057610100808354040283529160200191611c2b565b820191906000526020600020905b815481529060010190602001808311611c0e57829003601f168201915b505050505090806002015490806003018054611c4690612b05565b80601f0160208091040260200160405190810160405280929190818152602001828054611c7290612b05565b8015611cbf5780601f10611c9457610100808354040283529160200191611cbf565b820191906000526020600020905b815481529060010190602001808311611ca257829003601f168201915b5050505050905084565b606060008203611d10576040518060400160405280600181526020017f30000000000000000000000000000000000000000000000000000000000000008152509050611e23565b600082905060005b60008214611d42578080611d2b90612ebb565b915050600a82611d3b9190613238565b9150611d18565b60008167ffffffffffffffff811115611d5e57611d5d612237565b5b6040519080825280601f01601f191660200182016040528015611d905781602001600182028036833780820191505090505b5090505b60008514611e1c578180611da790613269565b925050600a85611db79190613292565b6030611dc391906132c3565b60f81b818381518110611dd957611dd861310b565b5b60200101907effffffffffffffffffffffffffffffffffffffffffffffffffffffffffffff1916908160001a905350600a85611e159190613238565b9450611d94565b8093505050505b919050565b6040518061016001604052806000815260200160608152602001606081526020016000815260200160008152602001606081526020016000815260200160001515815260200160001515815260200160008152602001606081525090565b6000819050919050565b611e9981611e86565b82525050565b6000602082019050611eb46000830184611e90565b92915050565b6000604051905090565b600080fd5b600080fd5b611ed781611e86565b8114611ee257600080fd5b50565b600081359050611ef481611ece565b92915050565b600060208284031215611f1057611f0f611ec4565b5b6000611f1e84828501611ee5565b91505092915050565b600081519050919050565b600082825260208201905092915050565b6000819050602082019050919050565b611f5c81611e86565b82525050565b608082016000820151611f786000850182611f53565b506020820151611f8b6020850182611f53565b506040820151611f9e6040850182611f53565b506060820151611fb16060850182611f53565b50505050565b6000611fc38383611f62565b60808301905092915050565b6000602082019050919050565b6000611fe782611f27565b611ff18185611f32565b9350611ffc83611f43565b8060005b8381101561202d5781516120148882611fb7565b975061201f83611fcf565b925050600181019050612000565b5085935050505092915050565b600060208201905081810360008301526120548184611fdc565b905092915050565b600081519050919050565b600082825260208201905092915050565b60005b8381101561209657808201518184015260208101905061207b565b60008484015250505050565b6000601f19601f8301169050919050565b60006120be8261205c565b6120c88185612067565b93506120d8818560208601612078565b6120e1816120a2565b840191505092915050565b60008115159050919050565b612101816120ec565b82525050565b6000610160830160008301516121206000860182611f53565b506020830151848203602086015261213882826120b3565b9150506040830151848203604086015261215282826120b3565b91505060608301516121676060860182611f53565b50608083015161217a6080860182611f53565b5060a083015184820360a086015261219282826120b3565b91505060c08301516121a760c0860182611f53565b5060e08301516121ba60e08601826120f8565b506101008301516121cf6101008601826120f8565b506101208301516121e4610120860182611f53565b506101408301518482036101408601526121fe82826120b3565b9150508091505092915050565b600060208201905081810360008301526122258184612107565b905092915050565b600080fd5b600080fd5b7f4e487b7100000000000000000000000000000000000000000000000000000000600052604160045260246000fd5b61226f826120a2565b810181811067ffffffffffffffff8211171561228e5761228d612237565b5b80604052505050565b60006122a1611eba565b90506122ad8282612266565b919050565b600067ffffffffffffffff8211156122cd576122cc612237565b5b6122d6826120a2565b9050602081019050919050565b82818337600083830152505050565b6000612305612300846122b2565b612297565b90508281526020810184848401111561232157612320612232565b5b61232c8482856122e3565b509392505050565b600082601f8301126123495761234861222d565b5b81356123598482602086016122f2565b91505092915050565b6000806040838503121561237957612378611ec4565b5b600061238785828601611ee5565b925050602083013567ffffffffffffffff8111156123a8576123a7611ec9565b5b6123b485828601612334565b9150509250929050565b6000806000606084860312156123d7576123d6611ec4565b5b60006123e586828701611ee5565b93505060206123f686828701611ee5565b925050604061240786828701611ee5565b9150509250925092565b6000806040838503121561242857612427611ec4565b5b600061243685828601611ee5565b925050602061244785828601611ee5565b9150509250929050565b600073ffffffffffffffffffffffffffffffffffffffff82169050919050565b600061247c82612451565b9050919050565b61248c81612471565b82525050565b60006020820190506124a76000830184612483565b92915050565b60006080820190506124c26000830187611e90565b6124cf6020830186611e90565b6124dc6040830185611e90565b6124e96060830184611e90565b95945050505050565b600081519050919050565b600082825260208201905092915050565b6000819050602082019050919050565b6000610160830160008301516125376000860182611f53565b506020830151848203602086015261254f82826120b3565b9150506040830151848203604086015261256982826120b3565b915050606083015161257e6060860182611f53565b5060808301516125916080860182611f53565b5060a083015184820360a08601526125a982826120b3565b91505060c08301516125be60c0860182611f53565b5060e08301516125d160e08601826120f8565b506101008301516125e66101008601826120f8565b506101208301516125fb610120860182611f53565b5061014083015184820361014086015261261582826120b3565b9150508091505092915050565b600061262e838361251e565b905092915050565b6000602082019050919050565b600061264e826124f2565b61265881856124fd565b93508360208202850161266a8561250e565b8060005b858110156126a657848403895281516126878582612622565b945061269283612636565b925060208a0199505060018101905061266e565b50829750879550505050505092915050565b600060208201905081810360008301526126d28184612643565b905092915050565b600081519050919050565b600082825260208201905092915050565b6000819050602082019050919050565b600060808301600083015161271e6000860182611f53565b506020830151848203602086015261273682826120b3565b915050604083015161274b6040860182611f53565b506060830151848203606086015261276382826120b3565b9150508091505092915050565b600061277c8383612706565b905092915050565b6000602082019050919050565b600061279c826126da565b6127a681856126e5565b9350836020820285016127b8856126f6565b8060005b858110156127f457848403895281516127d58582612770565b94506127e083612784565b925060208a019950506001810190506127bc565b50829750879550505050505092915050565b600060208201905081810360008301526128208184612791565b905092915050565b600082825260208201905092915050565b60006128448261205c565b61284e8185612828565b935061285e818560208601612078565b612867816120a2565b840191505092915050565b61287b816120ec565b82525050565b600061016082019050612897600083018e611e90565b81810360208301526128a9818d612839565b905081810360408301526128bd818c612839565b90506128cc606083018b611e90565b6128d9608083018a611e90565b81810360a08301526128eb8189612839565b90506128fa60c0830188611e90565b61290760e0830187612872565b612915610100830186612872565b612923610120830185611e90565b8181036101408301526129368184612839565b90509c9b505050505050505050505050565b600080600080600060a0868803121561296457612963611ec4565b5b600086013567ffffffffffffffff81111561298257612981611ec9565b5b61298e88828901612334565b955050602086013567ffffffffffffffff8111156129af576129ae611ec9565b5b6129bb88828901612334565b94505060406129cc88828901611ee5565b93505060606129dd88828901611ee5565b925050608086013567ffffffffffffffff8111156129fe576129fd611ec9565b5b612a0a88828901612334565b9150509295509295909350565b6000608082019050612a2c6000830187611e90565b8181036020830152612a3e8186612839565b9050612a4d6040830185611e90565b8181036060830152612a5f8184612839565b905095945050505050565b7f496e76616c6964206c6f616e2049440000000000000000000000000000000000600082015250565b6000612aa0600f83612828565b9150612aab82612a6a565b602082019050919050565b60006020820190508181036000830152612acf81612a93565b9050919050565b7f4e487b7100000000000000000000000000000000000000000000000000000000600052602260045260246000fd5b60006002820490506001821680612b1d57607f821691505b602082108103612b3057612b2f612ad6565b5b50919050565b7f4f6e6c79206f776e65722063616e2063616c6c20746869730000000000000000600082015250565b6000612b6c601883612828565b9150612b7782612b36565b602082019050919050565b60006020820190508181036000830152612b9b81612b5f565b9050919050565b7f4c6f616e20616c72656164792070726f63657373656400000000000000000000600082015250565b6000612bd8601683612828565b9150612be382612ba2565b602082019050919050565b60006020820190508181036000830152612c0781612bcb565b9050919050565b60008190508160005260206000209050919050565b60006020601f8301049050919050565b600082821b905092915050565b600060088302612c707fffffffffffffffffffffffffffffffffffffffffffffffffffffffffffffffff82612c33565b612c7a8683612c33565b95508019841693508086168417925050509392505050565b6000819050919050565b6000612cb7612cb2612cad84611e86565b612c92565b611e86565b9050919050565b6000819050919050565b612cd183612c9c565b612ce5612cdd82612cbe565b848454612c40565b825550505050565b600090565b612cfa612ced565b612d05818484612cc8565b505050565b5b81811015612d2957612d1e600082612cf2565b600181019050612d0b565b5050565b601f821115612d6e57612d3f81612c0e565b612d4884612c23565b81016020851015612d57578190505b612d6b612d6385612c23565b830182612d0a565b50505b505050565b600082821c905092915050565b6000612d9160001984600802612d73565b1980831691505092915050565b6000612daa8383612d80565b9150826002028217905092915050565b612dc38261205c565b67ffffffffffffffff811115612ddc57612ddb612237565b5b612de68254612b05565b612df1828285612d2d565b600060209050601f831160018114612e245760008415612e12578287015190505b612e1c8582612d9e565b865550612e84565b601f198416612e3286612c0e565b60005b82811015612e5a57848901518255600182019150602085019450602081019050612e35565b86831015612e775784890151612e73601f891682612d80565b8355505b6001600288020188555050505b505050505050565b7f4e487b7100000000000000000000000000000000000000000000000000000000600052601160045260246000fd5b6000612ec682611e86565b91507fffffffffffffffffffffffffffffffffffffffffffffffffffffffffffffffff8203612ef857612ef7612e8c565b5b600182019050919050565b60006040820190508181036000830152612f1d8185612839565b9050612f2c6020830184611e90565b9392505050565b7f4c6f616e206e6f7420617070726f766564000000000000000000000000000000600082015250565b6000612f69601183612828565b9150612f7482612f33565b602082019050919050565b60006020820190508181036000830152612f9881612f5c565b9050919050565b600081905092915050565b7f454d492023000000000000000000000000000000000000000000000000000000600082015250565b6000612fe0600583612f9f565b9150612feb82612faa565b600582019050919050565b60006130018261205c565b61300b8185612f9f565b935061301b818560208601612078565b80840191505092915050565b7f2070616964000000000000000000000000000000000000000000000000000000600082015250565b600061305d600583612f9f565b915061306882613027565b600582019050919050565b600061307e82612fd3565b915061308a8284612ff6565b915061309582613050565b915081905092915050565b60006060820190506130b56000830186611e90565b6130c26020830185611e90565b6130cf6040830184611e90565b949350505050565b60006130e282611e86565b91506130ed83611e86565b925082820390508181111561310557613104612e8c565b5b92915050565b7f4e487b7100000000000000000000000000000000000000000000000000000000600052603260045260246000fd5b7f4c6f616e206372656174656420666f7220000000000000000000000000000000600082015250565b6000613170601183612f9f565b915061317b8261313a565b601182019050919050565b600061319182613163565b915061319d8284612ff6565b915081905092915050565b600060a08201905081810360008301526131c28188612839565b905081810360208301526131d68187612839565b90506131e56040830186611e90565b6131f26060830185611e90565b6131ff6080830184611e90565b9695505050505050565b7f4e487b7100000000000000000000000000000000000000000000000000000000600052601260045260246000fd5b600061324382611e86565b915061324e83611e86565b92508261325e5761325d613209565b5b828204905092915050565b600061327482611e86565b91506000820361328757613286612e8c565b5b600182039050919050565b600061329d82611e86565b91506132a883611e86565b9250826132b8576132b7613209565b5b828206905092915050565b60006132ce82611e86565b91506132d983611e86565b92508282019050808211156132f1576132f0612e8c565b5b9291505056fea26469706673582212209e4921e005cce4eb2378496ab69aa8056d7ae714317d8a1f7f5a21f162be3d3e64736f6c63430008140033",
  "linkReferences": {},
  "deployedLinkReferences": {}
}